:100000000C942C090C9473090C9473090C947309C7
:100010000C9473090C9473090C9473090C94730970
:100020000C9473090C9473090C9437230C940A24D0
:100030000C94A31A0C9473090C9473090C9473090F
:100040000C9473090C9473090C9473090C94730940
:100050000C9473090C940B1B0C9473090C94730986
:100060000C9473090C9473090C9473090C94730920
:100070000C9473090C9473090C9473090C94730910
:100080000C9473090C9473090C9473090C94730900
:100090000C9473090C9473090C9473090C947309F0
:1000A0000C9473090C9473090C947309E0003700E5
:1000B000E300E1000000E2004F00E60076003600B9
:1000C0000F000000190009000000000000000151AD
:1000D000000000001D000000000000002C001000C7
:1000E0000E0005000B000A0006001B000000340093
:1000F000000000000000000051000000500033002C
:10010000120011001C001500070000000000300064
:100110000000000004000000280000003800130068
:100120000C000D00170008001A00160000002F0038
:100130000000E500390000003100000052002D00F1
:1001400026001800230021001F00140000002E00CC
:1001500000000000000000002A000000000027004E
:1001600025002400220020001E002B000000450076
:1001700000000000000000004C00000000004300F0
:1001800041003F003D003B00000000000000440033
:10019000000000000000000049000000480042008C
:1001A00040003E003C003A00290035000100630099
:1001B00001000100000001004D00010001000100EC
:1001C0005B000000AB000100000000000000010027
:1001D00000000000AE00000000000000A700620068
:1001E0005A00010001000100AC00AD000000010058
:1001F00000000000000000004E0000004A00560011
:100200005E0001000100010001000000000001008B
:1002100000000000010000005800000057005500D9
:100220005D00590001000100010001000000010013
:100230000000010001000000007000004B00010000
:1002400061005C000100010072000100000001007B
:100250000000000000000000010000000000540049
:1002600060005F00010073007100010000004700A2
:1002700000000000000000001F02000000006F00EE
:10028000AA006E006C006A0000000000000053002D
:100290000000000000000000460000007000A900FF
:1002A000A8006D006B00A600A50068000100010019
:1002B0000100010000000100010001000100010037
:1002C000010000000100010000000000000001002A
:1002D000000000000100000000000000010001001B
:1002E0000100010001000100010001000000010007
:1002F00000000000000000000100000001000100FB
:1003000001000100010001000100000000000100E7
:1003100000000000010000000100000001000100D9
:1003200001000100010001000100010000000100C6
:1003300000000100010000000100000001000100B8
:1003400001000100010001000100010000000100A6
:10035000000000000000000001000000000001009B
:100360000100010001000100010001000000010086
:10037000000000000000000001000000000001007B
:100380000100010001000100000000000000010068
:10039000000000000000000001000000010001005A
:1003A0000100010001000100010001000100010045
:1003B0000100010000000100010001000100010036
:1003C0000100000001000100000000000000010029
:1003D000000000000100000000000000010001001A
:1003E0000100010001000100010001000000010006
:1003F00000000000000000000100000001000100FA
:1004000001000100010001000100000000000100E6
:1004100000000000010000000100000001000100D8
:1004200001000100010001000100010000000100C5
:1004300000000100010000000100000001000100B7
:1004400001000100010001000100010000000100A5
:10045000000000000000000001000000000001009A
:100460000100010001000100010001000000010085
:10047000000000000000000001000000000001007A
:100480000100010001000100000000000000010067
:100490000000000000000000010000000100010059
:1004A0000100010001000100010001000100010044
:1004B0000100010000000100010001000100010035
:1004C0000100000001000100000000000000010028
:1004D0000000000001000000000000000100010019
:1004E0000100010001000100010001000000010005
:1004F00000000000000000000100000001000100F9
:1005000001000100010001000100000000000100E5
:1005100000000000010000000100000001000100D7
:1005200001000100010001000100010000000100C4
:1005300000000100010000000100000001000100B6
:1005400001000100010001000100010000000100A4
:100550000000000000000000010000000000010099
:100560000100010001000100010001000000010084
:100570000000000000000000010000000000010079
:100580000100010001000100000000000000010066
:100590000000000000000000010000000100010058
:1005A0000100010001000100010001000100010043
:1005B0000100010000000100010001000100010034
:1005C0000100000001000100000000000000010027
:1005D0000000000001000000000000000100010018
:1005E0000100010001000100010001000000010004
:1005F00000000000000000000100000001000100F8
:1006000001000100010001000100000000000100E4
:1006100000000000010000000100000001000100D6
:1006200001000100010001000100010000000100C3
:1006300000000100010000000100000001000100B5
:1006400001000100010001000100010000000100A3
:100650000000000000000000010000000000010098
:100660000100010001000100010001000000010083
:100670000000000000000000010000000000010078
:100680000100010001000100000000000000010065
:100690000000000000000000010000000100010057
:1006A0000100010001000100010001000100010042
:1006B0000100010000000100010001000100010033
:1006C0000100000001000100000000000000010026
:1006D0000000000001000000000000000100010017
:1006E0000100010001000100010001000000010003
:1006F00000000000000000000100000001000100F7
:1007000001000100010001000100000000000100E3
:1007100000000000010000000100000001000100D5
:1007200001000100010001000100010000000100C2
:1007300000000100010000000100000001000100B4
:1007400001000100010001000100010000000100A2
:100750000000000000000000010000000000010097
:100760000100010001000100010001000000010082
:100770000000000000000000010000000000010077
:100780000100010001000100000000000000010064
:100790000000000000000000010000000100010056
:1007A0000100010001000100010001000100010041
:1007B0000100010000000100010001000100010032
:1007C0000100000001000100000000000000010025
:1007D0000000000001000000000000000100010016
:1007E0000100010001000100010001000000010002
:1007F00000000000000000000100000001000100F6
:1008000001000100010001000100000000000100E2
:1008100000000000010000000100000001000100D4
:1008200001000100010001000100010000000100C1
:1008300000000100010000000100000001000100B3
:1008400001000100010001000100010000000100A1
:100850000000000000000000010000000000010096
:100860000100010001000100010001000000010081
:100870000000000000000000010000000000010076
:100880000100010001000100000000000000010063
:100890000000000000000000010000000100010055
:1008A0000100010001000100010001000100010040
:1008B0000100010000000100010001000100010031
:1008C0000100000001000100000000000000010024
:1008D0000000000001000000000000000100010015
:1008E0000100010001000100010001000000010001
:1008F00000000000000000000100000001000100F5
:1009000001000100010001000100000000000100E1
:1009100000000000010000000100000001000100D3
:1009200001000100010001000100010000000100C0
:1009300000000100010000000100000001000100B2
:1009400001000100010001000100010000000100A0
:100950000000000000000000010000000000010095
:100960000100010001000100010001000000010080
:100970000000000000000000010000000000010075
:100980000100010001000100000000000000010062
:100990000000000000000000010000000100010054
:1009A000010001000100010001000100010001003F
:1009B0000100010000000100010001000100010030
:1009C0000100000001000100000000000000010023
:1009D0000000000001000000000000000100010014
:1009E0000100010001000100010001000000010000
:1009F00000000000000000000100000001000100F4
:100A000001000100010001000100000000000100E0
:100A100000000000010000000100000001000100D2
:100A200001000100010001000100010000000100BF
:100A300000000100010000000100000001000100B1
:100A4000010001000100010001000100000001009F
:100A50000000000000000000010000000000010094
:100A6000010001000100010001000100000001007F
:100A70000000000000000000010000000000010074
:100A80000100010001000100000000000000010061
:100A90000000000000000000010000000100010053
:100AA000010001000100010001000100010001003E
:100AB000010001000000010001000100010001002F
:100AC0000100000001000100000000000000010022
:100AD0000000000001000000000000000100010013
:100AE00001000100010001000100010000000100FF
:100AF00000000000000000000100000001000100F3
:100B000001000100010001000100000000000100DF
:100B100000000000010000000100000001000100D1
:100B200001000100010001000100010000000100BE
:100B300000000100010000000100000001000100B0
:100B4000010001000100010001000100000001009E
:100B50000000000000000000010000000000010093
:100B6000010001000100010001000100000001007E
:100B70000000000000000000010000000000010073
:100B80000100010001000100000000000000010060
:100B90000000000000000000010000000100010052
:100BA000010001000100010001000100010001003D
:100BB000010001000000010001000100010001002E
:100BC0000100000001000100000000000000010021
:100BD0000000000001000000000000000100010012
:100BE00001000100010001000100010000000100FE
:100BF00000000000000000000100000001000100F2
:100C000001000100010001000100000000000100DE
:100C100000000000010000000100000001000100D0
:100C200001000100010001000100010000000100BD
:100C300000000100010000000100000001000100AF
:100C4000010001000100010001000100000001009D
:100C50000000000000000000010000000000010092
:100C6000010001000100010001000100000001007D
:100C70000000000000000000010000000000010072
:100C8000010001000100010000000000000001005F
:100C90000000000000000000010000000100010051
:100CA000010001000100010001000100010001003C
:100CB000010001000000010001000100010001002D
:100CC0000100000001000100000000000000010020
:100CD0000000000001000000000000000100010011
:100CE00001000100010001000100010000000100FD
:100CF00000000000000000000100000001000100F1
:100D000001000100010001000100000000000100DD
:100D100000000000010000000100000001000100CF
:100D200001000100010001000100010000000100BC
:100D300000000100010000000100000001000100AE
:100D4000010001000100010001000100000001009C
:100D50000000000000000000010000000000010091
:100D6000010001000100010001000100000001007C
:100D70000000000000000000010000000000010071
:100D8000010001000100010000000000000001005E
:100D90000000000000000000010000000100010050
:100DA000010001000100010001000100010001003B
:100DB000010001000000010001000100010001002C
:100DC000010000000100010000000000000001001F
:100DD0000000000001000000000000000100010010
:100DE00001000100010001000100010000000100FC
:100DF00000000000000000000100000001000100F0
:100E000001000100010001000100000000000100DC
:100E100000000000010000000100000001000100CE
:100E200001000100010001000100010000000100BB
:100E300000000100010000000100000001000100AD
:100E4000010001000100010001000100000001009B
:100E50000000000000000000010000000000010090
:100E6000010001000100010001000100000001007B
:100E70000000000000000000010000000000010070
:100E8000010001000100010000000000000001005D
:100E9000000000000000000001000000010001004F
:100EA000010001000100010001000100010001003A
:100EB000010001000000010001000100010001002B
:100EC000010000000100010000000000000001001E
:100ED000000000000100000000000000010001000F
:100EE00001000100010001000100010000000100FB
:100EF00000000000000000000100000001000100EF
:100F000001000100010001000100000000000100DB
:100F100000000000010000000100000001000100CD
:100F200001000100010001000100010000000100BA
:100F300000000100010000000100000001000100AC
:100F4000010001000100010001000100000001009A
:100F5000000000000000000001000000000001008F
:100F6000010001000100010001000100000001007A
:100F7000000000000000000001000000000001006F
:100F8000010001000100010000000000000001005C
:100F9000000000000000000001000000010001004E
:100FA0000100010001000100010001000100010039
:100FB000010001000000010001000100010001002A
:100FC000010000000100010000000000000001001D
:100FD000000000000100000000000000010001000E
:100FE00001000100010001000100010000000100FA
:100FF00000000000000000000100000001000100EE
:1010000001000100010001000100000000000100DA
:1010100000000000010000000100000001000100CC
:1010200001000100010001000100010000000100B9
:1010300000000100010000000100000001000100AB
:101040000100010001000100010001000000010099
:10105000000000000000000001000000000001008E
:101060000100010001000100010001000000010079
:10107000000000000000000001000000000001006E
:10108000010001000100010000000000000001005B
:10109000000000000000000001000000010001004D
:1010A00001000100010001000100010012036B00BA
:1010B0006500790062006F0061007200640000004A
:1010C000160371006D006B006200750069006C0012
:1010D00064006500720000000403090409026D0049
:1010E000040100A0FA090400000103010100092124
:1010F000110100012240000705810308000A0904CC
:1011000001000103010200092111010001224D002B
:101110000705820308000A09040200010300000019
:101120000921110100012236000705830308000A86
:10113000090403000103000000092111010001223C
:10114000390007058403200001120110010000008E
:1011500008EDFE606001000102000105010906A121
:1011600001050719E029E71500250195087501819A
:10117000020508190129059505750191029501756A
:101180000391010507190029F71500250195F87548
:10119000018102C005010980A10185021601002616
:1011A00003001A81002A8300751095018100C00593
:1011B0000C0901A1018503160100269C021A0100F9
:1011C0002A9C02751095018100C005010902A10148
:1011D0000901A10005091901290515002501950539
:1011E00075018102950175038101050109300931FD
:1011F0001581257F95027508810609381581257F9F
:10120000950175088106050C0A38021581257F9520
:101210000175088106C0C005010906A1010507196D
:10122000E029E715002501950875018102950175F2
:101230000881010508190129059505750191029597
:1012400001750391010507190029FF150026FF000C
:10125000950675088100C00011241FBECFEFDAE0AB
:10126000DEBFCDBF04B603FE27C0809182029091FD
:101270008302A0918402B09185028730904BA740F1
:10128000B04BD1F410928202109283021092840229
:101290001092850214BE84B7877F84BF0FB6F8947E
:1012A000A895809160008861809360001092600032
:1012B0000FBEE0E0F8E3099511E0A0E0B1E0ECE951
:1012C000FEE402C005900D92A034B107D9F722E0E8
:1012D000A0E4B1E001C01D92A238B207E1F70E947C
:1012E00086200C944C270C94000090E080E0089538
:1012F0000895089581E00895089581E008950C947B
:101300007A090E941E132FEF84E39CE02150804055
:101310009040E1F700C000000C94301BFF920F9347
:101320001F93CF93DF938C01FC01C081D181809109
:101330008C0181113FC082818823B9F1CE010E94C6
:101340008318F82E682FCE010E942B18BE018F2D16
:101350000E94D50AEC01B8010E947F09882309F494
:101360004AC0B801CE010E94E60C882309F443C0AC
:10137000C531F0E7DF0718F5C23080E7D80708F07D
:101380004BC0C115E0E7DE0789F1C130D047D1F18C
:1013900081E08093420180934301C801DF91CF91A6
:1013A0001F910F91FF900C947D09CE010E94591856
:1013B000F82ECCCFCE010E948318BE01C9CFCC330A
:1013C00080E7D80709F4ACC0CD33D04709F7F8015E
:1013D0008281882309F4CBC0109243010E94D51A60
:1013E000909341018093400180E2A7C0F80182817F
:1013F00081110E94810980E0DF91CF911F910F91AF
:10140000FF900895F80182818823A9F38091420218
:10141000816080934202EFCFF8018281882309F432
:10142000BCCF0E94341A811102C00E941A1A0E9475
:10143000511A90E09093740280937302FE01E3507E
:10144000F047809173028160E231F105C8F4E55DF7
:10145000F54F0C94FC263D0A490A4D0A510A550ADB
:10146000590A5D0A610A650A690A6D0A710A750AF4
:10147000790A7D0A810A850A890A8091730282604D
:1014800080937302809173020E94551A0E941E136A
:10149000B2CF809173028460F3CF80917302886031
:1014A000EFCF809173028061EBCF809173028062F5
:1014B000E7CF809173028064E3CF809173028068EC
:1014C000DFCF809173028460EACF809173028E7FB8
:1014D000D7CF809173028D7FD3CF809173028B7FA2
:1014E000CFCF80917302877FCBCF809173028F7EA5
:1014F000C7CF809173028F7DC3CF809173028F7BA2
:10150000BFCF809173028F77BBCF809173028B7FA7
:10151000EACF90917302892F97FB87F98058B0CF5B
:10152000F8018281882361F0109242010E94D51A4D
:10153000909341018093400182E00E94A8105BCF0C
:101540008091420181110FC0809140019091410131
:101550000E94E11A883C910530F486E20E947D0FDA
:1015600086E20E94591082E00E94AF1044CF809121
:10157000430181110FC080914001909141010E946F
:10158000E11A883C910530F487E20E947D0F87E2E2
:101590000E94591080E2E8CF0C94350D0C94370D61
:1015A0000C947C090C94D00A089528E0829FC00115
:1015B0001124FC01E70FF11D84E0EE0FFF1F8A9557
:1015C000E1F7E60FF11DEE0FFF1FE455FF4F859188
:1015D00094910895FC01EE0FFF1FE455FF4E859195
:1015E000949108950E94D50A0E94650C811520E40B
:1015F000920708F08DC0811540E3940708F0E8C019
:10160000803E910508F071C0803C910508F0CCC087
:10161000883A910580F4853A910508F0CAC0813076
:10162000910509F46EC020F08430910508F069C07E
:1016300090E080E008958D3B9105D0F7883A9105C0
:1016400009F404C1893A910509F403C18A3A910564
:1016500009F402C18B3A910509F401C18C3A910554
:1016600009F400C18B3B910509F4FFC08C3B910547
:1016700009F4FEC08D3A910509F4FDC0803B910547
:1016800009F4FCC08E3A910509F4FBC08F3A91052C
:1016900009F4FAC0813B910509F4F9C0823B910538
:1016A00009F4F8C0833B910509F4F7C0843B910528
:1016B00009F4F6C0853B910509F4F5C0863B910518
:1016C00009F4F4C0873B910509F4F3C0883B910508
:1016D00009F4F2C0893B910509F4F1C08A3B9105F8
:1016E00009F4F0C080E094E408958F3F910509F07B
:1016F00048F4803F910508F067C0883E910508F0E6
:1017000097CF0895811520E2920708F05FC00895F1
:10171000811543E5940760F5811522E5920708F0ED
:1017200062C0811541E5940708F058C0811520E595
:10173000920708F450C09C0154E0369527955A95BD
:10174000E1F7922F9370482F437021E030E002C000
:10175000220F331F4A95E2F73C68392B8695869510
:10176000837040E2849FC0011124822B932B089543
:10177000811545E5940750F4811524E5920708F496
:1017800046C0982F8827846F906A0895811546E592
:10179000940708F450C09C0130569F7021153041C9
:1017A00008F046CF90620895805C91090E94EA0A91
:1017B0000895853A910509F443C0863A910509F0E8
:1017C00042C082E890E40895906508959F70EECF3E
:1017D0009927906C08959F70906A0895982F882794
:1017E000816F906A0895AC014370552721E030E085
:1017F00002C0220F331F4A95E2F78695869540E294
:10180000849FC0011124822B932B9C680895AC0106
:101810004370552721E030E002C0220F331F4A9564
:10182000E2F78695869540E2849FC0011124822BC1
:10183000932B9A680895982F882788279F71B2CF95
:1018400081E890E4089583E890E4089582EE94E4BA
:10185000089589EE94E408958AEE94E4089585EB62
:1018600094E4089586EB94E4089583EB94E408955A
:1018700084EB94E4089587EB94E408958CEC94E46D
:1018800008958DEC94E4089583E895E408958AE83A
:1018900095E4089582E995E4089584E995E408952E
:1018A00081E296E4089583E296E4089584E296E462
:1018B000089585E296E4089586E296E4089587E225
:1018C00096E408958AE296E41CCF8238910549F1A6
:1018D000B0F48133910509F45CC048F48932910574
:1018E00009F452C08A32910509F458C0089585332D
:1018F000910509F444C08933910599F00895833E18
:10190000910531F138F4803E910591F0823E9105C8
:10191000B1F00895863E910511F1873E910541F1A0
:101920000895209173022370C9F080EE90E008952D
:101930002091730220FF12C089E390E00895209166
:10194000730222FF0BC024FF2EC090E080E00895B8
:101950002091730222FD2AC024FDF7CF0895209123
:10196000730223FFFBCF24FDF0CF87EE90E00895B4
:101970002091730223FFF0CF86EE90E0089520912E
:10198000730225FD16C008952091730225FD14C031
:1019900008952091730226FD12C0089520917302CC
:1019A00026FD10C0089583EE90E0089582EE90E049
:1019B000089589E290E0089585E390E008958AE231
:1019C00090E0089581E390E0C9CF08950F931F93AD
:1019D000CF938C01FB018281811106C0C1E08C2F65
:1019E000CF911F910F910895C0915101C11125C050
:1019F0000531104799F70E94E50C81E08093510171
:101A00000E94D51A9093500180934F011092440187
:101A10001092460110924501109248011092470120
:101A200010924A011092490110924C0110924B0100
:101A300010924E0110924D01D2CF80914F019091A2
:101A400050010E94E11A883C910540F680914401C2
:101A5000E82FF0E0EE0FFF1FEB5BFE4F11830083DA
:101A60008F5F80934401C0E0BACF0C9478090C9446
:101A7000790985B7806885BF85B7806885BFA3E28F
:101A8000B1E061E070E08D91E82FE295EF70F0E059
:101A900041A18F709B0101C0220F8A95EAF7922F16
:101AA0009095942391A382A1822B82A381E0AB32F3
:101AB000B80749F7A3E1B1E061E070E08D91E82F4C
:101AC000E295EF70F0E041A18F709B0101C0220F01
:101AD0008A95EAF7922F9095942391A382A1822B65
:101AE00082A381E0A332B80749F7E2E6F1E0A2E57C
:101AF000B1E082E791E0119211921D921D928E1732
:101B00009F07C9F70C94CC0A4F925F927F928F92F5
:101B10009F92AF92BF92CF92DF92EF92FF920F937C
:101B20001F93CF93DF9302E511E093E2E92E91E05A
:101B3000F92EE801CC24C394D12C99249394A88045
:101B4000B98019821882D7018D917D01E82FE29525
:101B5000EF70F0E091A18F70960101C0220F8A957D
:101B6000EAF7892F822B81A382A1822E809488217B
:101B700082A3B0EABA95F1F783E1482E81E0582EAE
:101B800090E080E0D2017D912D01472F42954F706A
:101B900050E0DA0190967C90488159817F70D6019F
:101BA00002C0AA0FBB1F7A95E2F7BD01672109F0B9
:101BB00057C0B601082E02C0660F771F0A94E2F7DD
:101BC000462B572B59834883019680319105D1F6D6
:101BD00081A1882281A282A1282B22A388819981B8
:101BE000A816B90641F0909272010E94D51A9093FE
:101BF0007401809373012296BBE2EB16B1E0FB0601
:101C000009F09DCF809172018823B9F08091730112
:101C1000909174010E94E11A069778F0E2E6F1E0F3
:101C200082E691E0D8012D913D918D012193319370
:101C30008A179B07B9F7109272010E94CE0A81E0C1
:101C4000DF91CF911F910F91FF90EF90DF90CF9098
:101C5000BF90AF909F908F907F905F904F9008952E
:101C600070E060E0ADCFE82FF0E0EE0FFF1FEE591F
:101C7000FE4F808191810895089590937A01809319
:101C800079010895E0917901F0917A01309721F07E
:101C90000190F081E02D099480E00895E0917901B0
:101CA000F0917A01309721F00280F381E02D0994C0
:101CB0000895E0917901F0917A01309721F0048044
:101CC000F581E02D099408952091770130917801F4
:101CD0002817390771F09093780180937701E0918C
:101CE0007901F0917A01309721F00680F781E02D9B
:101CF00009940895209175013091760128173907CC
:101D000071F09093760180937501E0917901F091E3
:101D10007A01309721F00084F185E02D099408952F
:101D200008950C94900E0E94CC1A0E94390D0C94C8
:101D30009D1B5F926F927F928F929F92AF92BF9204
:101D4000CF92DF92EF92FF920F931F93CF93DF9387
:101D5000CDB7DEB72A970FB6F894DEBF0FBECDBF62
:101D60000E94840D9CE7A92E91E0B92E10E000E0BE
:101D700088248394912C502E802F0E94330E7C0156
:101D8000F501C190D1905F01C816D90609F45EC073
:101D90008091420281FD0E943C0E90E080E0CE24C2
:101DA000DF243401082E02C0660C771C0A94E2F787
:101DB000960126213721232B09F443C08E835F82AD
:101DC000E620F72081E0EF2809F480E088870E9470
:101DD000D51A8160782F9A8789874E815F816885BF
:101DE0008A850E94530F000F111FF801E458FE4F1F
:101DF0008081918168267926718260820E94201EEE
:101E00000E94420E90917B018917B9F10E94420E07
:101E100080937B012A960FB6F894DEBF0FBECDBF2C
:101E2000DF91CF911F910F91FF90EF90DF90CF90B6
:101E3000BF90AF909F908F907F906F905F900C9429
:101E4000D20A01968031910509F0ABCF0F5F1F4F89
:101E50000830110509F08FCF8FEF89838A831B82A9
:101E60000E94D51A8160782F9D838C8349815A8185
:101E70006B818D810E94530FC1CF2A960FB6F894C3
:101E8000DEBF0FBECDBFDF91CF911F910F91FF90AD
:101E9000EF90DF90CF90BF90AF909F908F907F900A
:101EA0006F905F900895CF93DF93CDB7DEB72B97F8
:101EB0000FB6F894DEBF0FBECDBF4F83588769873A
:101EC0007A878B871E821D8285E0FE013796DE01B0
:101ED000119601900D928A95E1F749815A816B81A3
:101EE0007C818D819E812B960FB6F894DEBF0FBE4C
:101EF000CDBFDF91CF910C94D015882309F4D8C0C1
:101F0000823871F40E94420E81FDD2C089E30E94A2
:101F100023190E94EB1989E30E9460190C94EB19B4
:101F2000833859F40E94420E80FDC2C083E50E94AE
:101F300023190E94EB1983E5EFCF843859F40E94EE
:101F4000420E82FDB5C087E40E9423190E94EB195E
:101F500087E4E2CF9CEF980F913A18F40E9423197E
:101F6000DDCF90E2980F983050F4877091E001C077
:101F7000990F8A95EAF7892F0E94A219CFCF9BE586
:101F8000980F933070F4853A31F0863A39F083E84F
:101F900090E00C94640E81E890E0FBCF82E890E042
:101FA000F8CF98E5980F953108F082C0883A09F487
:101FB00040C0893A09F440C08A3A09F440C08B3ADB
:101FC00009F440C08C3A09F440C08B3B09F440C08E
:101FD0008C3B09F440C08D3A09F440C0803B09F4C1
:101FE00040C08E3A09F440C08F3A09F440C0813BAA
:101FF00009F440C0823B09F440C0833B09F440C06F
:10200000843B09F440C0853B09F440C0863B09F499
:1020100040C0873B09F440C0883B09F440C0893B7D
:1020200009F440C08A3B09F440C090E080E00C9481
:102030007A0E82EE90E0FBCF89EE90E0F8CF8AEE48
:1020400090E0F5CF85EB90E0F2CF86EB90E0EFCF1C
:1020500083EB90E0ECCF84EB90E0E9CF87EB90E06E
:10206000E6CF8CEC90E0E3CF8DEC90E0E0CF83E81E
:1020700091E0DDCF8AE891E0DACF82E991E0D7CF35
:1020800084E991E0D4CF81E292E0D1CF83E292E083
:10209000CECF84E292E0CBCF85E292E0C8CF86E259
:1020A00092E0C5CF87E292E0C2CF8AE292E0BFCF52
:1020B0000895882309F44BC0823871F40E94420EBF
:1020C00081FF45C089E30E9423190E94EB1989E32F
:1020D0000E9460190C94EB19833859F40E94420E47
:1020E00080FF35C083E50E9423190E94EB1983E528
:1020F000EFCF843859F40E94420E82FF28C087E453
:102100000E9423190E94EB1987E4E2CF9CEF980FFD
:10211000913AF0F290E2980F983050F4877091E085
:1021200001C0990F8A95EAF7892F0E94A819D2CF8A
:102130009BE5980F933020F490E080E00C94640EBF
:10214000885A853120F490E080E00C947A0E08954E
:10215000882321F00E94A2190C94EB19089588237A
:1021600021F00E94A8190C94EB1908958F929F9268
:10217000AF92BF92DF92EF92FF920F931F93CF9394
:10218000DF937C01D62FC72FFC01058102950F70CC
:10219000128111110E94C1190E941C19D82E882386
:1021A00071F0112321F180E28D0F883000F182E07F
:1021B0000E9406190E941C1991E0D82ED926EC2FF6
:1021C000E295EF70F0E0E951FF4E0C94FC26F91017
:1021D000F910491149118B11A71126112611B211BD
:1021E00026114A124A12BD1226112611C612D12CEE
:1021F000E6CF0C2F0F70C07F11F00295007F1123E6
:10220000A9F0002359F080E28D0F883010F0D11131
:1022100009C0802F0E94A2190E94EB198D2F0E94E5
:102220007D0F14C0802F0E94B319F6CF8D2F0E940E
:102230005910002359F080E28D0F883010F0D11131
:1022400024C0802F0E94A8190E94EB19DD2009F4F8
:10225000A4C10E94F91880FDA0C1F70112820E945A
:10226000F3180E946F17C7010E94D9120E94F31839
:10227000DF91CF911F910F91FF90EF90DF90BF9072
:10228000AF909F908F900C949017802F0E94B91957
:10229000DBCFFC2FFF70BF2EC07FC03219F0B2948D
:1022A00080EFB822DD2369F0D13029F1112369F1E3
:1022B000002359F0F701858180FFB0CF8F708583AF
:1022C00004C0112361F0011104C08B2D0E94A810DD
:1022D000BDCF8B2D0130D1F70E94D519B7CF011199
:1022E00006C00E94D8198B2D0E94AF10AFCF0130CD
:1022F00009F4ACCFF6CF112321F0063008F0A6CFB9
:10230000E4CF053008F0A2CFEECF002361F38D2F8C
:102310000E9459109BCF8C2F86958695837069F00B
:10232000813009F093CF8D2F9C2F9370111102C033
:1023300090E080E00E947A0E89CF8D2F9C2F9370C1
:10234000111102C090E080E00E94640E7FCF8D2FBB
:10235000112329F00E94291D0E94151E77CF0E948B
:10236000911DFACF8C2F837009F047C011116ECFE9
:102370002D2F229526952770220F220F6D2F6F701B
:10238000862E912CB12CA12C022E04C0880C991CF5
:10239000AA1CBB1C0A94D2F760E070E0CB01D4FF0A
:1023A0000FC06FE070E080E090E004C0660F771F20
:1023B000881F991F2A95D2F7609570958095909502
:1023C000C695C695C370C23051F080F4682979294A
:1023D0008A299B29C13071F00E94181737CF6829CC
:1023E00079298A299B290E94341730CF0E94181717
:1023F000C501B4010E94FC1629CF8695112311F066
:102400008C2F8170882309F421CF2D2F22952695BA
:102410002770220F220F6D2F6F70862E912CB12CFA
:10242000A12C022E04C0880C991CAA1CBB1C0A9467
:10243000D2F760E070E0CB01D4FF0FC06FE070E036
:1024400080E090E004C0660F771F881F991F2A95CF
:10245000D2F76095709580959095C695C695C37096
:10246000C23051F080F4682979298A299B29C1302A
:1024700071F00E94F217EACE682979298A299B29EE
:102480000E940E18E3CE0E94F217C501B4010E940B
:10249000D617DCCEE0E2ED0FE53108F062C0F0E0E7
:1024A000EC5AFD4E0C94FC266912691269126912ED
:1024B0006912691269126912691269126912691244
:1024C0006912691269126912761284128B129212C1
:1024D0009C12DF708C2F8F71112321F00E946F17D7
:1024E0008D2FF4CE0E9490178D2FFECE112341F038
:1024F000053008F0ABCE8C2F8F710E94B517A6CE99
:10250000063008F0A3CEF7CF8C2F8F71112339F04E
:102510000E946F179BCE8C2F8F711123C9F30E94DD
:10252000901794CE112329F08C2F8F710E945A1787
:102530008DCE0E9450178ACE112349F0CF718C2F77
:102540000E946F1763E08C2F0E94FD187FCE81E000
:102550000E940619023008F479CE82E00E94061922
:1025600075CE112329F0011159CE8C2F8F71D0CF48
:102570000111CDCE8C2F8F71D2CF4C2F4F706D2F7C
:10258000C7010E9475090E94791660CE4C2F4F70CA
:102590006D2FC7010E94D40A59CEDF91CF911F91B0
:1025A0000F91FF90EF90DF90BF90AF909F908F9032
:1025B00008950F931F93CF93DF93EC019881898146
:1025C0002B813C81232B39F08F3F19F481E09F3F11
:1025D00019F080E001C081E080FD17C0CE010E94AB
:1025E0008E09882391F0688179818A810E94CF18B1
:1025F0008C010E942A180E94F116B801CE01DF91C9
:10260000CF911F910F910C94B610DF91CF911F9134
:102610000F9108950E94C1190E94D2190E94941925
:102620000E94EB190E94C21E0E94151E90E080E0DD
:102630000E94640E90E080E00C947A0E0E94B01923
:102640000C940A130E94C518E92FE295EF70E2502E
:10265000EE30E0F4F0E0E15DFC4E0C94FC263D131E
:102660003D134613461348134613461346133D13B2
:102670003D134D13461346134D13803F19F020F4BC
:10268000803E20F481E00895843FE1F380E00895E6
:10269000803EC0F3813FD1F7F5CF93FB882780F9C7
:1026A0000895CF93DF9300D000D01F92CDB7DEB74F
:1026B0000F900F900F900F900F90DF91CF91089592
:1026C000CF93DF9300D000D000D0CDB7DEB72696F1
:1026D0000FB6F894DEBF0FBECDBFDF91CF91089546
:1026E0001F93CF93DF93C0918D0116E080918E01EF
:1026F0008C1304C0DF91CF911F910895D0E01C9FEF
:10270000F0011D9FF00D1124E157FE4F40815181D2
:1027100062817381848195810E9460132196C770C4
:10272000E5CF4091BF015091C0016091C10170910E
:10273000C2018091C3019091C4010C9460131F9356
:10274000CF93DF938091C401807FD1F48091C10148
:102750008823B1F080918D01D0918E01B091BF019D
:10276000C091C0014091C2015091C301A1E0BF3F9F
:1027700009F0A0E0BA016095709516E0D81304C086
:10278000DF91CF911F91089521E04115510521F06E
:102790002A2FCF3F09F020E090E020FD38C0189F9D
:1027A000F001199FF00D1124E157FE4F21812C13E8
:1027B0002EC020812B132BC02281211128C0238100
:1027C00034812417350700F1241B350B283C3105D3
:1027D000F0F42091C4012F7020612093C40126E001
:1027E000289FF001299FF00D1124EC56FE4F8081A7
:1027F0008F70806180838FEB91E00E94D912DF910E
:10280000CF911F910C947013260F371FDFCF0196C5
:102810008770B4CFAF92BF92CF92DF92EF92FF92C8
:102820000F931F93CF93DF93CDB7DEB761970FB6AA
:10283000F894DEBF0FBECDBF8C0185E0F801DE014C
:102840001D9601900D928A95E1F7D8014C91119651
:102850005C9111971296EC903091BF016091C0018C
:102860008091C2019091C30121E0009731F06F3F48
:1028700019F421E03F3F09F020E0B22FB170BB2EE8
:1028800020FD80C1F801C380D480A090C101AA209E
:1028900009F427C1C816D906D0F1D601A81BB90B77
:1028A000CD01FF24F394883C910508F0F12C809130
:1028B000C401982F907FFF2009F4CAC0911187C0EE
:1028C000FE2C651329C0341327C0E11025C08F707A
:1028D00080618093C4010E9491138FEB91E00E946C
:1028E000D9128091C401F80185838F2D61960FB6AE
:1028F000F894DEBF0FBECDBFDF91CF911F910F9136
:10290000FF90EF90DF90CF90BF90AF9008958095AB
:1029100090958C0D9D1DC5CF81E0CD2831F05F3F96
:1029200019F481E04F3F09F080E080FD24C081E090
:102930008E25F82FF170DF2E80FF3FC080918D0132
:1029400020918E0136E0821318C04D875E878D85F9
:102950009E850E94C518292F22952F70223008F1DC
:10296000243030F59F7009F1D80115969C91907F25
:10297000E1F4FB2CBACF80E0DCCF90E0389FF0018F
:10298000399FF00D1124E157FE4F6181561306C0A7
:102990006081461303C062816E110FC0019687707B
:1029A000D2CF9F7011F0882321F3805E883008F326
:1029B000C8010E94D912BD2CDCCFEE2009F495CFBE
:1029C0008091C40181608093C401F12C8ECF651386
:1029D00012C0341310C0E1100EC0F8018583C80185
:1029E0000E94D91286E0F801AFEBB1E001900D92A0
:1029F0008A95E1F741C04D875E878D859E850E944F
:102A00002213882309F4C8C0EE2009F4C5C08091C0
:102A1000C401803270F02091BF013091C00138872D
:102A20002F831986DB86CA868C87CE0107960E9483
:102A3000D91286E0F801AFEBB1E001900D928A95D2
:102A4000E1F70E949F130E949113FF24F3944DCF4E
:102A5000911115C07C2DD98AC88A6E2D89890E9452
:102A600051138FEB91E00E94D91286E0EFEBF1E079
:102A7000DF011D928A95E9F70E94911336CF651305
:102A800012C0341310C0E1100EC0F8018583C801D4
:102A90000E94D912EFEBF1E086E0DF011D928A95EA
:102AA000E9F7FA2C22CF4D875E878D859E850E949F
:102AB0002213882309F470C0EE2009F46DC08091C0
:102AC000C401803208F4B5CF2091BF013091C0011C
:102AD0003A8329831B82DD82CC828E83CE010196CC
:102AE000A6CFC816D90638F1F601E81BF90BCF01BD
:102AF000F12C883C910508F03DC0FE2CEE2009F435
:102B00004BC0651326C0341324C08091C40180FDDE
:102B100017C0982F907FA1F0D80115968C93159728
:102B2000903F09F45CCF982F907F905F8F70892B36
:102B300015968C9354CF809590958C0D9D1DD8CF74
:102B400086E0F801AFEBB1E001900D928A95E1F7D4
:102B5000CCCE4D875E878D859E850E942213811184
:102B600068CF8091C40181608093C401C8010E9434
:102B7000D912BBCE7C2DD98AC88A6E2D89890E9434
:102B8000511373CFEE2041F04D875E878D859E8572
:102B90000E94221381114DCFC8010E94D91255CF36
:102BA0001F93CF93DF93CDB7DEB72C970FB6F89472
:102BB000DEBF0FBECDBF4F83588769877A878B876B
:102BC0009C87CE0107960E940A14882309F442C00C
:102BD0009F8188852A853B85232B39F08F3F19F407
:102BE00081E09F3F19F080E001C081E080FD08C0D6
:102BF0004F81588569857A858B859C850E946013F5
:102C000016E080918D0190918E01891709F467C0BB
:102C1000819FC001112481579E4F0E940A1488236E
:102C200009F45DC0E0918D011E9FF0011124E15770
:102C3000FE4F4081518162817381848195810E9420
:102C4000601380918D0190E00196877099278093A1
:102C50008D01D7CF86E0FE013796DE0111960190F7
:102C60000D928A95E1F79F8188852A853B85232BE4
:102C700039F08F3F19F481E09F3F19F080E001C0E7
:102C800081E080FDBDCF20918E0130E0C901019629
:102C90008770992740918D014817190699F096E0A1
:102CA000929FD001939FB00D1124A157BE4FFE01FA
:102CB000319601900D929A95E1F780938E010E94D2
:102CC00070139ECF0E941E1310928E0110928D01E0
:102CD00086E0EFEBF1E0DF011D928A95E9F72C9693
:102CE0000FB6F894DEBF0FBECDBFDF91CF911F911D
:102CF0000895EF92FF920F931F93CF93DF938C0170
:102D0000892B81F0F12CEE24E394E8012196F8015F
:102D10008491843770F4843008F05FC08130B1F062
:102D20008230A1F1DF91CF911F910F91FF90EF9031
:102D30000895853709F44CC008F43DC09CE7980F0E
:102D4000903780F78F770E94591049C00E5F1F4F50
:102D5000FE01849190E2980F983060F48770FE2D08
:102D600001C0FF0F8A95EAF78F2F0E94C4190E94B5
:102D7000EB1902C00E947D0F8F2D815030F2EFE9D8
:102D8000FFE03197F1F700C00000F7CF0E5F1F4F53
:102D9000FE01849190E2980F983050F48770FE2DD8
:102DA00001C0FF0F8A95EAF78F2F0E94CA19DFCF63
:102DB0000E945910E1CF0E5F1F4FFE01C491C15018
:102DC000D8F28FE99FE00197F1F700C00000F7CF3C
:102DD0000E5F1F4FFE01F490CFCF0E947D0F8E013A
:102DE000CBCF08956093190270931A0280931B024F
:102DF00090931C020C940A130F931F9300911902D5
:102E000010911A0220911B0230911C02DC01CB01AF
:102E1000802B912BA22BB32B8093190290931A0233
:102E2000A0931B02B0931C021F910F910C940A13E4
:102E30000F931F930091190210911A0220911B0207
:102E400030911C02DC01CB0180239123A223B32308
:102E50008093190290931A02A0931B02B0931C0254
:102E60001F910F910C940A130F931F930091190255
:102E700010911A0220911B0230911C02DC01CB013F
:102E800080279127A227B3278093190290931A02D3
:102E9000A0931B02B0931C021F910F910C940A1374
:102EA0001092150210921602109217021092180238
:102EB0000C940A1341E050E060E070E004C0440F5D
:102EC000551F661F771F8A95D2F7409315025093BE
:102ED000160260931702709318020C940A1341E0D3
:102EE00050E060E070E004C0440F551F661F771F7C
:102EF0008A95D2F78091150290911602A09117023F
:102F0000B0911802842B952BA62BB72B809315021A
:102F100090931602A0931702B09318020C940A1310
:102F200041E050E060E070E004C0440F551F661FB0
:102F3000771F8A95D2F7409550956095709580914E
:102F4000150290911602A0911702B09118028423E5
:102F50009523A623B7238093150290931602A0937E
:102F60001702B09318020C940A1341E050E060E09D
:102F700070E004C0440F551F661F771F8A95D2F773
:102F80008091150290911602A0911702B09118023B
:102F900084279527A627B7278093150290931602BA
:102FA000A0931702B09318020C940A130F931F9367
:102FB000009115021091160220911702309118020B
:102FC000DC01CB01802B912BA22BB32B809315021C
:102FD00090931602A0931702B09318021F910F91BD
:102FE0000C940A130F931F9300911502109116026F
:102FF0002091170230911802DC01CB01802391232C
:10300000A223B3238093150290931602A093170274
:10301000B09318021F910F910C940A130F931F93F2
:10302000009115021091160220911702309118029A
:10303000DC01CB0180279127A227B32780931502BB
:1030400090931602A0931702B09318021F910F914C
:103050000C940A1308959295907F890F982F97707A
:1030600071E001C0770F9A95EAF786958695869567
:1030700025E0829FC001112450E040E0A62FB0E07F
:10308000FC01E40FF51FEB53FE4F60819D01042E00
:1030900002C0369527950A94E2F7217021952627DC
:1030A0002723262720834F5F5F4F4530510541F787
:1030B00008959295907F890F982F977086958695A1
:1030C000869525E0829FA001112470E060E080E0F9
:1030D000FA01E60FF71FEB53FE4F208130E0092E77
:1030E00002C0369527950A94E2F721703327062E01
:1030F00001C0220F0A94EAF7822B6F5F7F4F653081
:10310000710531F70895BF92CF92DF92EF92FF924F
:103110000F931F93CF93DF938C01C0901502D09033
:103120001602E0901702F090180280911902909117
:103130001A02A0911B02B0911C02C82AD92AEA2ABD
:10314000FB2ACFE1D0E0BC2ED701C6010C2E04C073
:10315000B695A795979587950A94D2F780FD0EC0EE
:10316000219788F7B12C8B2DDF91CF911F910F9173
:10317000FF90EF90DF90CF90BF900895B8018C2F13
:103180000E94F20A019761F3EECFCF93DF93EC0137
:103190000E948318BE01DF91CF910C94F20A1F9315
:1031A000CF93DF93EB0190918C01992331F0CB0108
:1031B000DF91CF911F910C94C518882379F0CB0132
:1031C0000E948318182F682FCE010E942B18BE0171
:1031D000812FDF91CF911F910C94F20ACB010E94B5
:1031E0005918182FF4CF80911D02859585958595E6
:1031F000089580911D028770089598E0899F90013D
:103200001124622B60931D020C946F1790911D0284
:103210008095892380931D02282F277061F4282F21
:10322000082E000C330B9217130629F0859585950F
:1032300085950C949017089590911D02977081E0E8
:1032400009F480E00895909112019923E1F09091A2
:10325000730297FF18C0E82FE695E695E695EF31E3
:1032600039F12091000130910101E20FF32FF11D9E
:10327000877021E030E001C0220F8A95EAF7818152
:10328000822B818308952091000130910101F90181
:1032900032969FEF40E05191851751F09F3F19F40E
:1032A000511101C0942F4F5F4E31A9F79F3F09F490
:1032B0000895290F311D97FD3A95F90182830895EC
:1032C000909112019923F1F09091730297FF1AC027
:1032D000E82FE695E695E695EF3129F1209100017A
:1032E00030910101E20FF32FF11D282F277081E0AB
:1032F00090E001C0880F2A95EAF780959181892393
:10330000818308952091000130910101F9013296E5
:10331000205E3F4F9191891303C0DF0111971C92EA
:10332000E217F307B9F7089581E090E0E09100011A
:10333000F0910101E80FF91F10820196803291058A
:10334000A9F7089590914102892B80934102089535
:10335000982F90958091410289238093410208958E
:1033600010924102089590914002892B809340026F
:103370000895982F90958091400289238093400270
:10338000089510924002089590913F02892B8093F6
:103390003F020895982F909580913F028923809352
:1033A0003F02089510923F02089580931E020895EF
:1033B00010921E0208952091000130910101F9013F
:1033C0003196205E3F4F80E0919191118F5FE2171F
:1033D000F307D1F70895E0910001F0910101809188
:1033E00041028083E0910001F09101018081909180
:1033F0004002892B8083E0910001F09101018081DE
:1034000090913F02892B808390911E02992361F055
:10341000E0910001F09101018081892B80830E945D
:10342000DB19811110921E0280910001909101011F
:103430000C944E0E6DEE7EEF90E080E00E943627F9
:1034400060E082E090E00E94242760E083E090E06A
:103450000E94242760E084E090E00E94242760E03E
:1034600085E090E00C94242790E080E00E941E27E5
:1034700021E08D3E9E4F09F020E0822F089582E0EA
:1034800090E00C941627682F82E090E00C9424279B
:1034900083E090E00C941627682F83E090E00C9472
:1034A000242784E090E00C941627682F84E090E0B5
:1034B0000C94242780917902843039F110924302D0
:1034C00088E190E020E40FB6F894A895809360001E
:1034D0000FBE2093600080E00E94D20A83B7817FF4
:1034E000846083BF83B7816083BF7894889583B7F6
:1034F0008E7F83BF0FB6F894A89580916000886195
:1035000080936000109260000FBE089508950895A2
:10351000CF930E94861A0E94840D0E94871AC0E0F1
:103520008C2F0E94330E892B31F4CF5FC830C1F746
:1035300080E0CF91089581E0FCCF0E941E130E948D
:10354000420E0C94D20A1F920F920FB60F921124C2
:103550008F939F93AF93BF9380914302811113C0C8
:1035600080916F0290917002A0917102B0917202ED
:103570004196A11DB11D80936F0290937002A0939C
:103580007102B0937202BF91AF919F918F910F9092
:103590000FBE0F901F90189582E084BD93E095BDFB
:1035A0009AEF97BD80936E0008952FB7F89480919D
:1035B0006F0290917002A0917102B09172022FBFC0
:1035C0000895CF92DF92EF92FF920F931F932FB740
:1035D000F89440916F025091700260917102709165
:1035E00072022FBF6A017B01EE24FF248C0130E0C0
:1035F00020E0C016D106E206F30650F0481B590B36
:10360000CA011F910F91FF90EF90DF90CF90089526
:1036100041505109F3CF1F920F920FB60F92112410
:103620008F939F93AF93BF9380916F02909170029D
:10363000A0917102B09172020196A11DB11D8093FB
:103640006F0290937002A0937102B0937202BF91C7
:10365000AF919F918F910F900FBE0F901F90189573
:103660000E94BC22F8942FEF87EA91E62150804017
:103670009040E1F700C0000087E090EBDC01809310
:10368000820290938302A0938402B093850288E122
:103690009CE00FB6F894A895809360000FBE9093BD
:1036A0006000FFCFAF92BF92CF92DF92EF92FF9276
:1036B0000F931F93CF93C0E0CC24C394D12CE82E5A
:1036C000F12C8C2F0E94330E5C0110E000E0C6014B
:1036D000002E02C0880F991F0A94E2F78A219B21CD
:1036E000892B99F40F5F1F4F0031110581F7CF5FD0
:1036F000C83039F780E0CF911F910F91FF90EF9084
:10370000DF90CF90BF90AF900895602F7C2F80E026
:103710000E94D50AE816F90629F781E0ECCFCF938D
:10372000C82F8CE20E94521B882321F08C2FCF914E
:103730000C94521B80E0CF910895CF930E94341ACD
:10374000811102C00E941A1AC5E608C00E94840DA9
:103750008FE39CE90197F1F700C00000C150B1F779
:1037600089E20E948F1B8111EFC08AE20E948F1BA9
:1037700081110E941A1A85E00E948F1B81110E94FC
:10378000301B0E943F1A8093420287E00E948F1BE9
:10379000882371F08BE10E948F1B882309F4B1C04C
:1037A00090914202892F8D7F91FF82608093420227
:1037B000809142020E94431A0E94511A90E0909315
:1037C00074028093730280EE0E948F1B882341F065
:1037D00090917302892F8E7F90FF81608093730296
:1037E00089E30E948F1B882341F090917302892FF7
:1037F0008D7F91FF82608093730282EE0E948F1B07
:10380000882341F090917302892F8B7F92FF84600F
:103810008093730286EE0E948F1B882341F0909163
:103820007302892F877F93FF88608093730283EEF2
:103830000E948F1B882341F090917302892F8F7E05
:1038400094FF80618093730285E30E948F1B88231D
:1038500041F090917302892F8F7D95FF8062809354
:10386000730281E30E948F1B882341F090917302C1
:10387000892F8F7B96FF80648093730281E10E9481
:103880008F1B882341F090917302892F97FB87F952
:10389000805880937302809173020E94551A87E2C8
:1038A0000E948F1BC82F8EE10E948F1B8111C26066
:1038B0008FE10E948F1B8111C46080E20E948F1BE8
:1038C0008111C86081E20E948F1B8111C06182E278
:1038D0000E948F1B8111C06283E20E948F1B8111A5
:1038E000C06484E20E948F1B882341F1C0688C2F42
:1038F0000E944C1A6C2F70E090E080E0CF910C9405
:10390000F2168EE00E948F1B882339F090914202BC
:10391000892F8B7F92FF846049CF80E10E948F1BAB
:1039200090914202882329F0892F877F93FF886036
:103930003DCF892F8E7F90FF816038CFC111D7CFC7
:103940000E94481A682FD7CFCF91089580914602E0
:1039500080FF12C06091050185E0689FB0011124CD
:10396000759567957595679560387105A8F561152A
:103970007105A1F1862F089581FF09C060910501AD
:1039800085E0689FB001112475956795EDCF82FFA2
:1039900007C06091050185E0689FB0011124E4CF64
:1039A000209147022223A9F0909104016091050122
:1039B00085E0689FB00111242917B0F6269FA00169
:1039C000279F500D1124692F70E0CA010E94E8263C
:1039D000CBCF65E070E0CECF8FE7089581E008950A
:1039E0008091460280FF0CC06091030170E07595E4
:1039F0006795759567956115710549F1862F08954D
:103A000081FF06C06091030170E075956795F3CF63
:103A10006091030182FD0BC0909147029923A1F0B0
:103A20006091020180910301961738F0682F70E0D1
:103A30006038710500F38FE70895899FC001112454
:103A400070E00E94E826F4CF61E070E0D7CF81E01B
:103A50000895803F31F40E94A61C819580934A020C
:103A60000895813F19F40E94A61CF8CF823F31F4DB
:103A70000E94A61C8195809349020895833F19F402
:103A80000E94A61CF8CF893F29F40E94F01C809365
:103A90004B0208958A3F21F40E94F01C8195F7CFD4
:103AA0008B3F31F40E94F01C819580934C02089565
:103AB0008C3F19F40E94F01CF8CF843F31F48091C0
:103AC00048028160809348020895853F21F48091E7
:103AD00048028260F7CF863F21F4809148028460DB
:103AE000F1CF873F21F4809148028860EBCF883F77
:103AF00021F4809148028061E5CF8D3F31F48091BF
:103B0000460281608093460208958E3F21F48091A1
:103B100046028260F7CF8F3FB9F7809146028460FA
:103B2000F1CF803FC1F480914A0287FD10924A0292
:103B30008091490281110EC080914A0281110AC010
:103B400080914B02811106C080914C02811102C00C
:103B5000109247020895813F29F480914A02181675
:103B60002CF3E6CF90914902823F29F497FFE0CFF2
:103B700010924902DDCF833F19F41916CCF3D8CF48
:103B8000893F39F480914B02181694F610924B023B
:103B9000CFCF8A3F29F480914B0287FFC9CFF6CF60
:103BA0008B3F39F480914C0287FFC2CF10924C02B8
:103BB000BFCF8C3F29F480914C021816BCF3B8CFCC
:103BC000843F31F4809148028E7F80934802B0CFC9
:103BD000853F21F4809148028D7FF7CF863F21F405
:103BE000809148028B7FF1CF873F21F4809148027A
:103BF000877FEBCF883F21F4809148028F7EE5CF0D
:103C00008D3F31F4809146028E7F8093460290CFA3
:103C10008E3F21F4809146028D7FF7CF8F3F09F0D0
:103C200087CF809146028B7FF0CF88E492E00E949C
:103C3000590E0E94D51A909345028093440208952C
:103C40001F93CF93DF9380914402909145020E948D
:103C5000E11AAC01909147022091060130E09111E8
:103C600006C0209107018AE0289F90011124421785
:103C7000530780F080914902C0914A0210914B0293
:103C8000D0914C0281110AC0C11178C0111176C0C7
:103C9000D11174C0DF91CF911F9108959F3F19F00A
:103CA0009F5F90934702181624F40E94A61C8093ED
:103CB00049028091490287FF05C00E94A61C819598
:103CC000809349021C1624F40E94A61C80934A0289
:103CD00080914A0287FF05C00E94A61C81958093AF
:103CE0004A0260914902662331F1C0914A02CC2315
:103CF00011F1062E000C770B880B990B0E94EF2513
:103D000023E333E343E35FE30E9453260E94B72596
:103D1000609349026C2FCC0F770B880B990B0E9494
:103D2000EF2523E333E343E35FE30E9453260E943E
:103D3000B72560934A02111624F40E94F01C809368
:103D40004B0280914B0287FF05C00E94F01C8195B9
:103D500080934B021D1624F40E94F01C80934C02A9
:103D600080914C0287FF05C00E94F01C81958093D2
:103D70004C02DF91CF911F910C94151E9F3F09F0CB
:103D80008FCFA0CF85E0E8E4F2E0DF011D928A95B5
:103D9000E9F71092470210924602089580916D0251
:103DA0000895CF93DF9300D01F92CDB7DEB79C016B
:103DB00080917902843019F593E099833B832A83BB
:103DC0009093E9008FEF9091E800815095FD06C037
:103DD00095ED9A95F1F700008111F5CF8091E800FB
:103DE00085FF0DC050E040E063E070E0CE01019639
:103DF0000E942C218091E8008E778093E8000F903C
:103E00000F900F90DF91CF910895CF93DF9300D063
:103E10001F92CDB7DEB720917902243031F522E030
:103E20002983805891099B838A8383E08093E900EA
:103E30008FEF9091E800815095FD06C095ED9A9521
:103E4000F1F700008111F5CF8091E80085FF0DC0EA
:103E500050E040E063E070E0CE0101960E942C212A
:103E60008091E8008E778093E8000F900F900F907C
:103E7000DF91CF9108959C01809179028430F9F40B
:103E800082E08093E9009FEF8091E800915085FDEA
:103E900006C085ED8A95F1F700009111F5CF80916C
:103EA000E80085FF0CC050E040E065E070E0C9012B
:103EB0000E942C218091E8008E778093E80008957D
:103EC000CF93DF93EC01809179028430F1F49091EB
:103ED00012019923E9F09091730297FF19C0809322
:103EE000E9008FEF9091E800815095FD06C095E1C3
:103EF0009A95F1F700008111F5CF8091E80050E02C
:103F000040E060E270E085FD1AC0DF91CF91089536
:103F100081E08093E9008FEF9091E800815095FD5A
:103F200006C095ED9A95F1F700008111F5CF8091CB
:103F3000E80085FFEACF50E040E068E070E0CE01A5
:103F40000E942C218091E8008E778093E80080E227
:103F5000FE01ADE4B2E001900D928A95E1F7D5CF74
:103F600080917802811109C00E94BC220E9419230D
:103F70008091E20084608093E200089510927802BC
:103F80000895089508950C949D1A42E061EC81E033
:103F90000E943A2242E061EC82E00E943A2242E032
:103FA00061EC83E00E943A2242E261EC84E00C94EE
:103FB0003A2280917B02833009F455C030F481307D
:103FC00071F1823009F491C008958A3009F47DC0FE
:103FD0008B3009F463C0893009F044C080917A02C3
:103FE000813209F03FC080917E0290917F0200975C
:103FF00011F00397B9F58091E800877F8093E8007E
:104000008091E80082FF2AC08091F10080936D02C8
:104010008091E8008B778093E8000C946E22809169
:104020007A02813AF9F48091E800877F8093E80072
:1040300080917E0290917F02892B61F460E28DE491
:1040400092E070E00E947B218091E8008B77809362
:10405000E800089560E090E080E0F3CF809179027D
:104060008111CECF089580917A02813AD9F780915B
:104070007E0290917F02892BA9F78091E800877FCB
:104080008093E8008091E80080FFFCCF80911201CE
:104090008093F1008091E8008E77BDCF80917A0205
:1040A000813201F780917E0290917F02892BD1F6B7
:1040B0008091E800877F8093E8000E946E228091C3
:1040C0007C02809312010C941E1380917A0281323B
:1040D00049F68091E800877F8093E8000E946E2275
:1040E00080917D0280936E02089580917A02813AD8
:1040F00009F0B8CF8091E800877F8093E800809135
:10410000E80080FFFCCF80916E02C2CF84B7877F2A
:1041100084BF0FB6F894A895809160008861809361
:104120006000109260000FBE80E8809361001092E2
:1041300061000E94910E0E94BC220E94192380916E
:10414000E20084608093E20078940E949B250E94A4
:10415000930E88E091E00E943D0E809179028530B7
:1041600019F00E94990EF9CF0E945A1A8091770295
:10417000882399F30E94881A882379F30E941621D4
:10418000ECCF292F33272330310579F158F4213032
:104190003105F1F02230310519F190E080E030E096
:1041A00020E01AC02132310599F122323105A9F7F8
:1041B000643098F770E0FB01EE0FFF1FE15DFE4FEA
:1041C00020813181655D7E4FFB01808190E004C0DC
:1041D00082E190E029E431E1FA01318320830895FE
:1041E0008DE690E02CED30E1F7CF992781309105F5
:1041F00061F028F0029789F6ECEAF0E102C0E8ED00
:10420000F0E1849190E09F01E7CFE0ECF0E1F9CF9D
:10421000643008F0C2CFE62FF0E0EE0FFF1FE95C3C
:10422000FE4F2081318189E090E0D6CF80E189BDC9
:1042300082E189BD09B400FEFDCF8091D8008F7D59
:104240008093D8008091E00082608093E0008091AC
:10425000E00081FDFCCF0895AF92BF92CF92DF9234
:10426000FF920F931F93CF93DF936C01EB018A01B1
:104270000E948D22F82E811123C00115110539F0FD
:10428000F80180819181C81BD90BC80ED91EB12CB1
:10429000A12C2097A9F08091E80085FD22C0809193
:1042A000E8008E778093E80001151105A1F0F80170
:1042B00080819181A80EB91EB182A08285E0F82E7E
:1042C0008F2DDF91CF911F910F91FF90DF90CF90B5
:1042D000BF90AF9008950E948D228823D1F2F82ECE
:1042E000EFCFF60181916F018093F1002197FFEFED
:1042F000AF1ABF0ACECFFC0180918002909181025B
:1043000086179707A0F06115710529F49091E800D0
:104310009E779093E80090E06115710551F491113A
:1043200008C08091E80082FF35C080E00895BC019C
:10433000F2CF809179028823C9F18530C9F180914B
:10434000E80083FD31C08091E80082FDEACF8091D2
:10435000E80080FFE1CF2091F3008091F200322F3E
:10436000282F6115710519F02830310558F091E0BA
:104370002830310509F090E02091E8002E77209355
:10438000E800CACF81918093F100615071092F5FDD
:104390003F4FE7CF80917902882341F0853041F08B
:1043A0008091E80083FFBDCF81E0089582E0089509
:1043B00083E00895FC01809180029091810286172C
:1043C0009707A0F06115710529F48091E8008E77B8
:1043D0008093E80090E06115710551F4911108C0D7
:1043E0008091E80082FF36C080E00895BC01F2CFE2
:1043F000809179028823D1F18530D1F18091E80054
:1044000083FD32C08091E80082FDEACF8091E80010
:1044100080FFE1CF2091F3008091F200322F282F0E
:104420006115710519F02830310558F091E02830F8
:10443000310509F090E08091E8008E778093E800E4
:10444000CACF84918093F1003196615071092F5F3A
:104450003F4FE6CF80917902882341F0853041F0CB
:104460008091E80083FFBCCF81E0089582E0089549
:1044700083E00895982F973028F08F708093E9009B
:1044800081E008959093E900242F762F50E098174B
:1044900031F07091EC002091ED005091F00021FD81
:1044A00002C09F5FE8CF3091EB003E7F3093EB007E
:1044B0003091ED003D7F3093ED003091EB003160A5
:1044C0003093EB007093EC002093ED005093F000DC
:1044D0002091EE0027FDE5CF80E0089580917A02DB
:1044E00087FF13C08091E80082FF06C08091E8003A
:1044F0008B778093E80004C0809179028111F2CF1C
:104500000895809179028823D9F38091E80080FF93
:10451000F8CF8091E8008E77ECCF2091E4003091C5
:10452000E50085E69091EC0090FF06C09091E800D0
:1045300090FF06C080E008959091E80092FDFACFC8
:1045400090917902992391F0953091F09091EB0040
:1045500095FD10C04091E4005091E5002417350707
:1045600009F381509A01F1F684E0089582E00895FC
:1045700083E0089581E008950E942A230E94322357
:10458000E0EEF0E0808181608083E8EDF0E0808102
:104590008F77808319BCA7EDB0E08C918E7F8C93D0
:1045A00080818F7E80831092780208950F931F93ED
:1045B000CF93DF930E942A230E943223C8EDD0E0DC
:1045C00088818F77888388818068888388818F7DC0
:1045D000888319BC109279021092750210927702AA
:1045E0001092760200EE10E0F80180818B7F8083CC
:1045F00088818160888342E060E080E00E943A2206
:10460000E1EEF0E080818E7F8083E2EEF0E0808159
:1046100081608083808188608083F80180818E7FC3
:104620008083888180618883DF91CF911F910F9172
:104630000895E8EDF0E080818F7E8083E7EDF0E083
:1046400080818160808384E082BF81E080937802F2
:104650000C94D622E8EDF0E080818E7F808310926A
:10466000E20008951092DA001092E10008951F927E
:104670000F920FB60F9211242F933F934F935F9396
:104680006F937F938F939F93AF93BF93EF93FF931A
:104690008091E10082FF0BC08091E20082FF07C0A1
:1046A0008091E1008B7F8093E1000E949A258091A8
:1046B000DA0080FF19C08091D80080FF15C080917A
:1046C000DA008E7F8093DA008091D90080FF94C059
:1046D00080E189BD82E189BD09B400FEFDCF81E0A2
:1046E000809379020E94B01F8091E10080FF19C081
:1046F0008091E20080FF15C08091E2008E7F809360
:10470000E2008091E20080618093E2008091D80015
:1047100080628093D80019BC85E0809379020E9462
:10472000C21F8091E10084FF29C08091E20084FFD4
:1047300025C080E189BD82E189BD09B400FEFDCFBD
:104740008091D8008F7D8093D8008091E1008F7E8A
:104750008093E1008091E2008F7E8093E20080915F
:10476000E20081608093E20080917502882309F461
:1047700049C084E0809379020E94C31F8091E100C8
:1047800083FF29C08091E20083FF25C08091E10072
:10479000877F8093E10082E0809379021092750216
:1047A0008091E1008E7F8093E1008091E2008E7F16
:1047B0008093E2008091E20080618093E20042E019
:1047C00060E080E00E943A228091F000886080934F
:1047D000F0000E94C11FFF91EF91BF91AF919F9197
:1047E0008F917F916F915F914F913F912F910F909A
:1047F0000FBE0F901F90189519BC109279020E945D
:10480000BE1F72CF8091E30087FD02C081E0B2CF6E
:1048100083E0B0CF1F920F920FB60F9211242F9307
:104820003F934F935F936F937F938F939F93AF9338
:10483000BF93CF93EF93FF93C091E900CF70809126
:10484000EC001092E9008091F000877F8093F000E7
:1048500078940E9446241092E9008091F0008860CC
:104860008093F000C093E900FF91EF91CF91BF9149
:10487000AF919F918F917F916F915F914F913F91F8
:104880002F910F900FBE0F901F9018951F93CF93ED
:10489000DF93CDB7DEB7AA970FB6F894DEBF0FBE91
:1048A000CDBFEAE7F2E08091F100819322E0E238A7
:1048B000F207C9F70E94D91F8091E80083FF42C028
:1048C00080917A0290917B029A3008F03BC0E92FE8
:1048D000F0E0E359FB4D0C94FC2677249B24A224A2
:1048E0009B24A224F6241825A2246D257A2580383D
:1048F00079F0823839F580917E028F708093E900DB
:104900008091EB0085FB882780F91092E90006C0B2
:104910008091760290917702911182609091E800E7
:10492000977F9093E8008093F1001092F1008091BE
:10493000E8008E772DC0282F2D7F21F48823D1F019
:10494000823059F18091E80083FF0AC08091E8002D
:10495000877F8093E8008091EB0080628093EB007A
:10496000AA960FB6F894DEBF0FBECDBFDF91CF91F0
:104970001F91089580917C02813021F7933009F0D6
:1049800080E0809377021092E9008091E800877FB1
:104990008093E8000E946E22D5CF80917C02811125
:1049A000F2CF80917E028F7069F28093E9002091AE
:1049B000EB0020FFE8CF933031F48091EB00806270
:1049C0008093EB00E0CF9091EB0090619093EB002F
:1049D00021E030E001C0220F8A95EAF72093EA0037
:1049E0001092EA008091EB008860EACF8111AACF93
:1049F00010917C021F778091E3008078812B809357
:104A0000E3008091E800877F8093E8000E946E2297
:104A10008091E80080FFFCCF8091E3008068809364
:104A2000E30083E0111101C082E0809379028ACF14
:104A30008058823008F086CF80917C0290917D0270
:104A40008C3D23E09207A1F583E08A838AE2898383
:104A50004FB7F894DE01139620E03EE051E2E32FD9
:104A6000F0E050935700E49120FF03C0E295EF700F
:104A70003F5FEF708E2F90E0EA30C0F0C7968D93C5
:104A80009D932F5F243159F74FBF8091E800877FB6
:104A90008093E8006AE270E0CE0101960E947B21DB
:104AA0008091E8008B778093E8004CCFC096E7CFE9
:104AB000AE014F5F5F4F60917E020E94C120BC013A
:104AC000892B09F43FCF9091E800977F9093E800FD
:104AD00089819A810E94DA21E3CF803809F032CFB0
:104AE0008091E800877F8093E80080917502809331
:104AF000F1001DCF811126CF90917C02923008F0F9
:104B000021CF8091E800877F8093E8009093750221
:104B10000E946E2280917502882331F084E0809398
:104B200079020E94C51F0ECF8091E30087FDF6CF6A
:104B300081E0F5CF0895CF9380917902882399F091
:104B4000C091E900CF708091EC0080FD0EC080E044
:104B5000C82B1092E9008091E80083FD0E94462452
:104B6000CF70C093E900CF91089580E8F1CF0E9403
:104B7000BE256894B1110C944D2608950E943226EA
:104B800088F09F5798F0B92F9927B751B0F0E1F00E
:104B9000660F771F881F991F1AF0BA95C9F714C0BE
:104BA000B13091F00E944C26B1E008950C944C264F
:104BB000672F782F8827B85F39F0B93FCCF38695F7
:104BC00077956795B395D9F73EF490958095709554
:104BD00061957F4F8F4F9F4F0895E89409C097FBD1
:104BE0003EF490958095709561957F4F8F4F9F4FC4
:104BF0009923A9F0F92F96E9BB279395F695879508
:104C000077956795B795F111F8CFFAF4BB0F11F4CA
:104C100060FF1BC06F5F7F4F8F4F9F4F16C0882371
:104C200011F096E911C0772321F09EE8872F762FA7
:104C300005C0662371F096E8862F70E060E02AF0E8
:104C40009A95660F771F881FDAF7880F96958795D4
:104C500097F9089557FD9058440F551F59F05F3F3D
:104C600071F04795880F97FB991F61F09F3F79F08E
:104C700087950895121613061406551FF2CF469510
:104C8000F1DF08C0161617061806991FF1CF869592
:104C90007105610508940895E894BB276627772776
:104CA000CB0197F908950E9466260C94D7260E949E
:104CB000C92638F00E94D02620F0952311F00C94DC
:104CC000C0260C94C62611240C944D260E942A2638
:104CD00070F3959FC1F3950F50E0551F629FF0014F
:104CE000729FBB27F00DB11D639FAA27F00DB11D68
:104CF000AA1F649F6627B00DA11D661F829F2227F1
:104D0000B00DA11D621F739FB00DA11D621F839F77
:104D1000A00D611D221F749F3327A00D611D231F4D
:104D2000849F600D211D822F762F6A2F11249F579B
:104D300050409AF0F1F088234AF0EE0FFF1FBB1F9E
:104D4000661F771F881F91505040A9F79E3F51055D
:104D500080F00C94C0260C944D265F3FE4F3983EFF
:104D6000D4F3869577956795B795F795E7959F5F07
:104D7000C1F7FE2B880F911D9695879597F9089599
:104D800097F99F6780E870E060E008959FEF80ECFE
:104D9000089500240A9416161706180609060895A1
:104DA00000240A9412161306140605060895092E07
:104DB0000394000C11F4882352F0BB0F40F4BF2B76
:104DC00011F460FF04C06F5F7F4F8F4F9F4F0895B6
:104DD00097FB072E16F4009407D077FD09D00E94A8
:104DE000022707FC05D03EF4909581959F4F0895CA
:104DF000709561957F4F0895EE0FFF1F0590F49118
:104E0000E02D0994AA1BBB1B51E107C0AA1FBB1FC1
:104E1000A617B70710F0A61BB70B881F991F5A9546
:104E2000A9F780959095BC01CD010895F999FECF21
:104E300092BD81BDF89A992780B50895A8E1B0E0A8
:104E400042E050E00C943E27262FF999FECF92BD08
:104E500081BDF89A019700B4021639F01FBA20BD3F
:104E60000FB6F894FA9AF99A0FBE08950196272F73
:104E70000E9425270C942427DC01CB01FC01F99921
:104E8000FECF06C0F2BDE1BDF89A319600B40D9296
:0C4E900041505040B8F70895F894FFCF4F
:104E9C001F022808140A321ECE1E601F3B1F051F5E
:104EAC00D11E01303233906692F0F1F4F5F6F736FC
:104EBC003534943137919367959697404D36391721
:104ECC0012CA1194115B11EE100711201139110047
:00000001FF
